:020000040800F2
:10000000A80A00209D0100089D480008DF42000862
:10001000994800084D0D0008495C000800000000E8
:10002000000000000000000000000000F153000884
:10003000E70D000800000000A14800087154000806
:10004000B7010008B7010008B7010008B7010008B0
:10005000B7010008A5480008B7010008B70100086B
:10006000090E0008B7010008B7010008B701000831
:10007000B7010008B7010008B7010008B701000880
:10008000B7010008B70100088D030008B701000898
:10009000B7010008B7010008B70100080F0E0008FB
:1000A000B7010008B7010008B7010008B701000850
:1000B000F95400081555000800000000F14200083E
:1000C000E54200080000000000000000B701000841
:1000D00000000000FD5B0008B7010008B701000840
:1000E000EB0D0008B7010008000000000000000050
:1000F0000000000000000000000000000000000000
:1001000000000000000000000000000000000000EF
:100110000000000000000000B7010008B70100085F
:1001200000000000000000000000000000000000CF
:1001300000000000000000000000000000000000BF
:10014000B7010008B701000800000000F13A0008FC
:10015000B7010008B7010008B7010008B70100089F
:10016000B7010008B701000800000000000000000F
:10017000000000000000000000000000000000007F
:1001800000000000B7010008DFF80CD000F0AAF86A
:100190000048004789630008A80A002006488047F5
:1001A00006480047FEE7FEE7FEE7FEE7FEE7FEE75C
:1001B000FEE7FEE7FEE7FEE7E954000889010008D4
:1001C0002DE9F05F0546002092469B46884606468C
:1001D000814640241BE0284641464746224600F01F
:1001E00020F853465A46C01A914110D3114618467A
:1001F000224600F068F82D1A67EB01084F462246A8
:100200000120002100F05FF817EB00094E41201E8D
:10021000A4F10104DFDC484631462A464346BDE8E6
:10022000F09F202A04DB203A21FA02F000217047D7
:1002300021FA02F3D040C2F120029140084319464E
:10024000704710B50B4604461146184600F027F8D3
:10025000C4E9000110BD40EA01039B0703D009E097
:1002600008C9121F08C0042AFAD203E011F8013BA2
:1002700000F8013B521EF9D27047D2B201E000F8FB
:10028000012B491EFBD270470022F6E710B513463A
:100290000A4604461946FFF7F0FF204610BD70B528
:1002A00000242546002801DA01244042002901DA11
:1002B0000125494200F028F8AC4200D04042002C11
:1002C00000D0494270BD202A04DB203A00FA02F136
:1002D000002070479140C2F1200320FA03F3194334
:1002E00090407047064C074D06E0E06840F001037F
:1002F00094E8070098471034AC42F6D3FFF748FF64
:100300006C7000088C70000830B50B460146002068
:100310002022012409E021FA02F59D4205D303FAC7
:1003200002F5491B04FA02F52844151EA2F1010248
:10033000F1DC30BD70B58C1810F8015B15F00703C7
:1003400001D110F8013B2A1106D110F8012B03E06E
:1003500010F8016B01F8016B5B1EF9D12B0705D476
:100360000023521E0DD401F8013BFAE710F8013BBF
:10037000CB1A921C03E013F8015B01F8015B521EDB
:10038000F9D5A142D8D3002070BD00002DE9F0417D
:100390002A4801680968490648D529490B681A683E
:1003A000520643D540221A6003681A60026852F868
:1003B000803F244804691C4404615368056A2B4447
:1003C0000362926845692A444261096851F8805F76
:1003D00086692E4486614D68476A3D444562896856
:1003E000C7693944C16107887F1E3F043F0C0780FD
:1003F0001AD1154FE4083C80144CD2082280144CCA
:10040000F2082280134AC9081180134AD9081180C2
:10041000124AE9081180082101800021416201622D
:10042000C161816141610161BDE8F081034801F072
:1004300019F8BDE8F041024801F014B86C02002040
:10044000BC0200202000002070000020720000206C
:10045000A0000020A2000020640000206600002010
:1004600070B504460068816801F00301012926D1B6
:100470000168C90723D0816801F00D01012910D15D
:10048000816841F00201816021680320086001F069
:100490002BFC05460FE000BF01F026FC401B0228A4
:1004A00009D9206C40F010002064606C40F001001D
:1004B0006064012070BD20688068C007ECD1002016
:1004C00070BD000070B504460068816801F003014A
:1004D000012902D10168C90720D18168104A11425F
:1004E0000DD1816841F00101816001F0FDFB0546FD
:1004F0000FE000BF01F0F8FB401B022809D9206C77
:1005000040F010002064606C40F001006064012045
:1005100070BD20680068C043C007EBD1002070BDEB
:100520003F00008010B5040007484FF4806102D0FE
:10053000012C05D101E0002200E0012201F0CFFBF7
:100540000248447010BD000000040048AC010020C7
:100550000148407870470000AC01002070B50021D0
:10056000084604F021FF7EA17F4806F06AF900F0FA
:100570002FFB20B17D48006818B17DA109E07DA165
:1005800007E07D48B0F90000002801DD7BA100E014
:100590007BA1754806F055F97AA1734806F051F928
:1005A0007B4C20887B4D6421484329880522B0FB81
:1005B000F1F16D4806F012F977A16B4806F041F9A8
:1005C00028884CF27C41484340F6E44590FBF5F026
:1005D0006843C11700EB115001130522624806F071
:1005E000FDF86FA1604806F02CF96F4800886F494C
:1005F0006F4E484390FBF6F029464843C11700EB85
:10060000115001130522584806F0E8F869A1564830
:1006100006F017F920884CF27C41484390FBF5F036
:1006200029464843C11700EB1150011305224E48DB
:1006300006F0D4F861A14C4806F003F9614800883F
:100640005A490522484390FBF6F029464843C11712
:1006500000EB11500113444806F0C0F85AA142487B
:1006600006F0EFF8002004F081FC014605223E4828
:1006700006F0B4F856A13C4806F0E3F8002004F078
:1006800067FC01460522384806F0A8F852A1364812
:1006900006F0D7F8012004F069FC01460522324833
:1006A00006F09CF84AA1304806F0CBF8012004F08F
:1006B0004FFC014605222C4806F090F848A12A4834
:1006C00006F0BFF8022004F051FC0146052226483E
:1006D00006F084F83EA1244806F0B3F8022004F0A6
:1006E00037FC01460522204806F078F83EA11E4856
:1006F00006F0A7F83E48032201781B4806F06EF882
:100700003CA1194806F09DF83B48032201781648A1
:1007100006F064F839A1144806F093F800F0ACFA3A
:10072000C8B100F0A9FA012817D035A10E4806F08B
:1007300088F801F0D9FA334C33A1A0600A4806F0DA
:1007400080F8D4E90201411A0522074806F046F86C
:10075000A068E06070BD2FA1E8E72FA1E6E70000E8
:100760004D50505428000000755200082C00002005
:100770002100000023000000740000202B00000076
:100780002D000000292056622F5670253D000000E4
:1007900072000020700000200A5670616E3D00005B
:1007A000202049703D000000A0000020389D070077
:1007B0008C7801000A566261743D00002020496275
:1007C0003D000000A20000200A56626D733D00004B
:1007D000202045723D0000000A49626D733D000013
:1007E0000A43626D733D00000A4C253D0000000085
:1007F000680000202C20000069000020202A200032
:1008000044696D00000000200A4379636C655469F7
:100810006D653D004F66660042726967687400004E
:1008200070B503F0C1FD154A154B1649164D00244D
:1008300051F8346086420ED9287884420AD001EB00
:10084000C400017911704079187000F015FA00F0B9
:10085000F9F92C7070BD641CE4B2172CE8D3287829
:100860001728F7D0502010700A20187000F004FAF2
:1008700000F0E8F91720287070BD00006800002023
:1008800069000020746D00080000002010B500F021
:10089000F3F928B104F0AEFD10B1002000F0D2F958
:1008A00000F0EAF940B904F0A5FD28B9022000F0F3
:1008B000C9F9254900200861244C206830B100F0B6
:1008C000DBF9022802D1012000F0BCF9206830B920
:1008D00000F0D2F9012802D1022000F0B3F900F0B3
:1008E00077F958B91A48008840F2D131884205D9C1
:1008F0001848006810B9012000F04EF900F0BCF96A
:1009000028B1FFF725FE10B90120FFF70BFE00F01C
:10091000B3F930B9FFF71CFE012802D10020FFF720
:1009200001FE0D48028840F6DA130C499A4201D2C2
:10093000EF220A80008840F6DE12904202D940F28F
:100940007E70088010BD00009801002090000020FB
:10095000700000208C000020720000206000002049
:1009600010B500F035F918B90021012000F08AF91E
:1009700000F02EF9304C012805D1206818B9022169
:10098000012000F07FF900F023F9012805D120684B
:1009900018B10121084600F075F900F06DF918B999
:1009A0000021022000F06EF900F066F9012803D161
:1009B0000321022000F066F900F05EF9022802D15E
:1009C000012100F05FF9FFF7C3FD18B903210420EE
:1009D00000F058F9FFF7BCFD012803D102210420E3
:1009E00000F050F9154C2088602803D2002108201F
:1009F00000F048F920888E2803D90121082000F052
:100A000041F9FFF7A5FD012802D000F035F918B132
:100A10000121102000F036F9FFF79AFD002809D1D6
:100A200000F02AF9002805D10021BDE8104010206F
:100A300000F028B910BD00002C000020A20000200A
:100A400006484169002901DA002105E0426949F2BE
:100A500074118A4200DC41694161704768000020DE
:100A600000B500F05FF8FFF7EBFF00F00BF804486B
:100A70000021C161818140F2D131C18100BD0000FE
:100A800068000020254810B5416940F2A232914229
:100A900001D2104604E043F62E20814202D20846DD
:100AA00011461CE045F6E922914202D201F674118A
:100AB00011E046F2D350814205D2A1F50050BB3877
:100AC00042F25D410BE048F28E6244F218509142CE
:100AD00004D2A1F5BB71A1F5804100E0014644F6C6
:100AE000BA02131A441A43F2BA42A14204D99942F3
:100AF00006D9A1F5A05203E09C4201D9A0F5A0526D
:100B0000134671B6064A1468E3611368C3F89C0083
:100B10001068C0F89C1161B610BD0000680000208C
:100B20000C0300201949488942F2107250430A8987
:100B300042F2E403B0FBF2F042F21072984205D2A6
:100B400044F218535843B0FBF2F01CE043F67F63C5
:100B5000984205D20E4AB2FBF0F047F6467211E019
:100B600044F63823984208D242F25D435843B0FB22
:100B7000F2F042F2BB02104405E0064AB2FBF0F08C
:100B800048F63022101A48617047000068000020C3
:100B9000E0A4E00880F98A0A10B504000AD0012C0C
:100BA0000ED13321074801F08EFB074946F66C3021
:100BB000086003E03321034801F09DFB0348847083
:100BC00010BD00000C03002024000020680000205D
:100BD00001488078704700006800002010B503F0DD
:100BE00097FC03F0F3FB03F045FC03F035FD03F045
:100BF0000DFE00210F4800F00DF900210E4800F015
:100C000009F901210B4800F005F901210A4800F01B
:100C100001F9084800F042FB074800F03FFB4FF4A1
:100C20003021064801F0F2FABDE8104000210448E6
:100C300002F062BEBC0200206C0200200C03002007
:100C4000E8030020094960B101280DD002280AD12B
:100C50004A784A710649002208708021054801F04F
:100C60003EB80020487170470A78F2E7680000201B
:100C7000AC010020000800480148007870470000DF
:100C8000AC0100202DE9F04104462548B1B101290D
:100C900012D0022909D0032905D10179214301711C
:100CA000C178A143C170BDE8F081C1782143C17012
:100CB0000179A1430171F6E7012500E000250179E2
:100CC000A1430171C178A143C170164EE00704D061
:100CD0002A461021304601F002F8A0074FF0904755
:100CE00005D52A464FF40041384600F0F8FF60076A
:100CF00005D52A464FF40051384600F0F0FF200792
:100D000005D52A464FF48041384600F0E8FFE0065A
:100D1000C9D52A463046BDE8F041082100F0DFBFC2
:100D20006800002000040048BFF34F8F05480168A9
:100D3000054A01F4E06111430160BFF34F8F00BF2A
:100D4000FDE700000CED00E00400FA05FFF7ECBF42
:100D500030B5002308E000BF01EB83040568246878
:100D60004FEA34442C605B1CB3EB520FF4D3D20730
:100D700003D0026831F8231011800068006830BD8C
:100D800070B500230BE000BF01EB83042568E47815
:100D90002DBA25F0FF052543046825605B1CB3EBE5
:100DA000920FF1D394071BD002F00304012C03D15E
:100DB000066811F823503570022C05D101EB83042D
:100DC0000568248864BA2C80D243920708D101EBCD
:100DD00083020368118849BA1980917802681170FA
:100DE0000068006870BDFFF79FBF10B54FF400505A
:100DF00000F08AFE4FF4804000F086FEBDE810400F
:100E00004FF4004000F080BE042000F07DBE2020A2
:100E100000F07ABE2DE9F041044690F83C00884687
:100E200001280AD0012584F83C502046FFF718FB22
:100E300006004FF0000703D033E00220BDE8F08148
:100E400025642068816821F080418160B8F1010F3C
:100E500004D12068816841F0804181602068816808
:100E600041F00041816000F03FFF05460FE000BF08
:100E700000F03AFF401B0A2809D9206C20F002003C
:100E800040F01000206484F83C700120D6E7206810
:100E900080680028ECDB206C20F0020040F00100AC
:100EA000206484F83C703046C8E70000F0B50023A9
:100EB00094B01D46009390F83C4002691E46012CF8
:100EC0000BD00124EE4F80F83C404AB18A69012AD8
:100ED00006D0C66C3EB3826C36E0022014B0F0BD82
:100EE0004A68012A05D0026C42F020020264012304
:100EF00049E00A6A012A09D0D1F824C042EA0C026A
:100F0000D1F800C046EA0C26324302E00A6846EAFD
:100F10000222D0F800C0DCF84C603E401643CCF80A
:100F20004C6082642FE0C0E912520A6A012A08D09C
:100F3000D1F818C04E6AACF1010C46EA0C063243F7
:100F400001E08A69521E82640E7906EB460C022685
:100F500006EB4C064FF01F0C0CFA06FC22EA0C02C2
:100F6000D1F800C00CFA06FC42EA0C028264C66C9E
:100F7000761EC66407D1D0F800C0DCF84C603E4055
:100F80001643CCF84C600268966836071CD44E7F36
:100F900056B1D6688F7F26F4401646EA4756D6608B
:100FA0000A7F012A0BD00FE08E7F0F7F760546EA7D
:100FB0000756D76827F440173E43D66004E0026C1A
:100FC00042F02002026401230668B26812F00C0F9E
:100FD0004FF007027ED10F6A012FF76827F00077E4
:100FE00004D0F7604E7F012E06D00AE091F81DC0B4
:100FF00047EA4C67F76004E0036C43F020030364A6
:1010000001230E6807680A2E11D3D7F818C00A3ECC
:1010100006EB460602FA06FE2CEA0E0CD1F808E0B2
:101020000EFA06FE4CEA0E0CC7F818C00FE0D7F80F
:1010300014C006EB460602FA06FE2CEA0E0CD1F8A6
:1010400008E00EFA06FE4CEA0E0CC7F814C006685B
:101050004F69D6F80CC0D1F810E0CCF3C10C4FEAC0
:101060004C0C07FA0CF7DFF81CC2BEF1010F44D09C
:10107000BEF1020F4FD0BEF1030F5AD0BEF1040FE4
:1010800065D0376E91F800C007F0F847B7EB8C6F6A
:1010900003D1376E27F0004737660668776E91F800
:1010A00000C007F0F847B7EB8C6F03D1776E27F0DD
:1010B000004777660668B76E91F800C007F0F847FA
:1010C000B7EB8C6F03D1B76E27F00047B7660668A1
:1010D000F76E00E00AE091F800C007F0F847B7EBC0
:1010E0008C6F03D1F76E27F00047F7660668B76884
:1010F00007F00307012F3AD136E0D6F860E00EEA98
:101100000C0E91F800C047EA8C674EEA070E4EF0CD
:1011100000473766EAE7D6F864E00EEA0C0E91F86D
:1011200000C047EA8C674EEA070E4EF0004777662C
:10113000DCE7D6F868E00EEA0C0E91F800C047EA4A
:101140008C674EEA070E4EF00047B766CEE7D6F83A
:101150006CE00EEA0C0E91F800C047EA8C674EEA8C
:10116000070E4EF00047C0E73768FF075ED1CF6833
:10117000012F06D056F8B02F0F78BC40A243326042
:1011800020E056F8B07F91F800C004FA0CF4274331
:1011900037600C6806680A2C0AD3B769093C04EB6F
:1011A0004404A24097438A68A2401743B76109E00C
:1011B0007769641C04EB4404A24097438A68A24008
:1011C000174377610968304A102904D0112905D0E6
:1011D000122906D02AE09468240204E09468E4010D
:1011E00001E094686402002C20DB04684FF0A04604
:1011F000B44202D1254F009700E00096A76807F09F
:101200000307012F02D12768FF070AD1009F8FB182
:10121000BF6807F00307012F0CD1009F3F68FF074D
:1012200008D0016C41F020010164012380F83C509A
:10123000184653E6102908D011291AD01229F5D1E1
:10124000916841F480019160F0E7B442EED1916879
:1012500041F4000191600E490E4A0968B1FBF2F1B8
:1012600001EB8101490000E0491E00910029FBD1FA
:10127000DCE7B442DAD1916841F08071E3E7000025
:101280000020088200F0FF8300030050000100509E
:10129000D400002040420F007047704710B504464C
:1012A00000688068000766D494F83C0001280CD0E0
:1012B000012084F83C002046FFF704F901004FF0BC
:1012C000000204D084F83C2056E0022010BD206CBF
:1012D00042F20103984340F4805020644FF0A04054
:1012E000D0F80833DB0602D02368834203D1236C95
:1012F00023F4801302E0236C43F480132364236CF3
:10130000DB0500D4626484F83C20236860221A6004
:101310002268D3689B0203D5536843F4806353600B
:101320006269082A2268536802D043F0600306E02D
:1013300023F0200353602268536843F04003536056
:101340002268D3689B0117D4D0F80833DB060DD090
:10135000D0F8083303F01F03062B07D0D0F808336A
:1013600003F01F03072B01D0824205D1906840F0A3
:101370000800906000E00221084610BD70477047E9
:1013800070B5026800234FF0A04494B0A24200D18F
:10139000314C009490F83C40012C1FD0012480F87F
:1013A0003C40926852074CD4009A9268520748D445
:1013B0002A4A0D6840F61F7445B3956890F830606E
:1013C00025F4604545EA46354E6835439560056825
:1013D000AE6806F00306012E06D102E0022014B02A
:1013E00070BD2D68ED0731D1009DAD6805F0030596
:1013F000012D03D1009D2D68ED0727D10D68896867
:101400000D439168A1430D4395601FE0916821F45D
:101410006041916001688D6805F00305012D02D1DE
:101420000968C90712D10099896801F003010129EF
:1014300003D100990968C90708D19168A143916057
:1014400004E0016C41F0200101640123002180F8D7
:101450003C101846C3E70000000100500003005094
:101460007047704770B50446006801684FF0A045AA
:10147000490702D54168490705D40168090748D5DD
:101480004168090745D5216CC90603D4216C41F494
:1014900000712164D5F80813C9060DD0D5F80813DA
:1014A00001F01F01052907D0D5F8081301F01F012D
:1014B000092901D0A84201D1C16800E0E968C268E9
:1014C00012F4406F1FD189041DD4016809071AD591
:1014D000816849070FD4416821F00C014160206CFC
:1014E00020F480702064206CC0040CD4206C40F088
:1014F0000100206407E0206C40F010002064606C64
:1015000040F0010060642046FFF7AAFF21680C202C
:10151000086020680168890602D54168890605D4FB
:101520000168490662D5416849065FD5216C41F4DE
:1015300000512164D5F80813C9060DD0D5F8081359
:1015400001F01F01052907D0D5F8081301F01F018C
:10155000092901D0A84201D1C16800E0E968C26C44
:1015600012F0C00F3CD18A0105D5C26812F4406F59
:1015700036D1890434D40168490631D5D5F8081329
:10158000C9060DD0D5F8081301F01F01062907D0B0
:10159000D5F8081301F01F01072901D0A84201D195
:1015A000C16800E0E96889021AD4816809070FD48C
:1015B000416821F060014160206C20F4805020647B
:1015C000206CC0050CD4206C40F00100206407E0C2
:1015D000206C40F010002064606C40F001006064FA
:1015E0002046FFF759FE21686020086020680168E6
:1015F00009060CD54068000609D5206C40F48030FF
:101600002064204600F054F921688020086020689A
:101610000168C9050DD54068C0050AD5206C40F4A5
:10162000003020642046FFF7A9FE21684FF4807047
:1016300008602068016889050DD5406880050AD5D5
:10164000206C40F4802020642046FFF798FE21683B
:101650004FF40070086021680868C0061BD5486810
:10166000C00618D5606B012807D017488268D206DB
:1016700027D0806800F4404050B1206C40F4806076
:101680002064606C40F0020060642046FFF7E9FED1
:1016900021681020086020680168490510D541685C
:1016A00049050DD5216C41F480412164616C41F004
:1016B000080161644FF4806101602046FFF7EDFD91
:1016C00070BDC868C007D7E700030050F0B54FF001
:1016D000000595B004002F462E46009505D0206CDD
:1016E000C00648D4206C18B133E0012015B0F0BD1D
:1016F0006664E664A66484F83C60204600F0DAF88C
:1017000020688068C00024D42046FEF7A9FE054664
:10171000206CC0061DD4E5B9206C20F4885040F040
:10172000020020642068816821F0405181602068B7
:10173000816841F080518160574858490068B0FB8A
:10174000F1F000EB8000400000E0401E0090002817
:10175000FBD120688168C90002D5806880000AD565
:10176000206C20F0020040F010002064606C40F01B
:10177000010060640125206CC0067DD4002D7BD162
:101780002068816849077ED4216C21F4807141F082
:101790000201216442494FF0A042904200D1414AE7
:1017A0000092826802F00302012A02D10068C00799
:1017B00010D1009840B1806800F00300012803D1E7
:1017C00000980068C00705D18868626820F440303E
:1017D00010438860D4E902100843616B012902D0EC
:1017E0004FF4805200E00022617E42EA4132104311
:1017F00094F820203843012A0AD1A9B1216C21F0A4
:10180000020141F020012164616C41F00101616439
:10181000A16A012902D0E26A1143084321688A685B
:1018200012F00C0F08D013E0A18C1F4A02EB4141CB
:10183000014341F48030EBE7CA6844F202039A4363
:10184000CA60217E94F83020890341EA42010843AE
:101850002168CA68154B1A400243CA6020690128F2
:101860002068016B21F00F0102D1E269521E114381
:1018700001636664206C00E005E020F0020040F0A7
:101880000100206406E0206C20F0020040F010000F
:1018900020640125284629E7D400002040420F009B
:1018A00000030050000100500000FEFF07C0F0FFE1
:1018B00070470000F0B5274A066800241168264BDF
:1018C00003252648491C87B0B6F1A04F06D0244F07
:1018D000BE423DD1116001291AD021E011600129D9
:1018E00007D1596941F080515961596901F080511E
:1018F00005910C21CDE900150294694600F010F91C
:101900000F20CDE90005694602944FF0904015E0A4
:10191000596941F080515961596901F0805105912F
:101920002321CDE900150294694600F0F9F84CF244
:101930000400CDE90005694602940A4800F0F0F879
:1019400000221146122000F01FFE122000F00EFEB1
:1019500007B0F0BD58000020001002400008004809
:101960000001005000040048F0B5044600201E238A
:10197000012601E05B1E05D303F01F0706FA07F5F9
:101980000D42F7D072B1082A0AD0102A05D0182AC1
:1019900001D1072B06D30120F0BD082BFBD201E0BB
:1019A000102BF8D22368596121688B6823F0180343
:1019B00013438B60F0BD000070B504460020022385
:1019C0006377236A012B0FD0022B11D0032B12D186
:1019D00005E000BF256851F820302B60401C904284
:1019E000F8D32068006806E02046FFF7C9F902E056
:1019F0002046FFF7ADF90121617770BD10B50400F5
:101A000010D0607F20B900202077204600F030F809
:101A100002206077207938B1D4E902122046FFF71E
:101A2000A3FF48B1012010BD21681048486120681B
:101A3000816821F0180181606079A0B12069216876
:101A4000086120688168626921F06001114381604A
:101A500020688168A26921F0800111438160012022
:101A60006077002010BD4FF0FF30E8E7B71DC104DC
:101A700008B500680649884208D10648416941F026
:101A800040014161406900F04000009008BD000045
:101A9000003002400010024070B5044600F024F906
:101AA0000546601C02D004480078044400F01CF98C
:101AB000401BA042FAD370BDB000002010B504282E
:101AC00011D0B0F5005F13D0B0F5804F12D0B0F553
:101AD000004F0CD108490888401C08800020FFF7FF
:101AE0005BF8FFF721F905494FF4FA70088210BD41
:101AF0000349F0E70349EEE79E010020680000205B
:101B0000A00100209C010020044910B50A6802428F
:101B100002D00860FFF7D2FF10BD0000140401409E
:101B20002DE9FC4FDFF884A1002301250AF1040B05
:101B300003244FF00F0C0BF1040EB0E005FA03F78D
:101B40003A406ED04E68012E05D0022E03D0112EE1
:101B500001D0122E17D1D0F808905E0004FA06F8D2
:101B600029EA08090096D1F80C8008FA06F848EA34
:101B70000908C0F808804668BE430F79C7F300170C
:101B80009F4037434760C6684FEA430804FA08F7A6
:101B9000BE4301978F6807FA08F73743C7604E685E
:101BA000022E01D0122E10D1DE0800EB8606009620
:101BB000366A5F074FEAD7690CFA09F7BE430F6927
:101BC00007FA09F73743009E37620668019FBE4354
:101BD0000F7907F0030707FA08F7374307604E68E5
:101BE000F6005BD5324EB76947F00107B761B669B9
:101BF00023F0030706F0010600962E4E3E44B14640
:101C0000B6689F074FEA17780CFA08F7BE43B0F1A1
:101C1000904F04D0284FB84204D101270DE000278F
:101C20000BE03BE0254FB84201D1022705E0244FED
:101C3000B84201D1032700E0052707FA08F7374328
:101C4000C9F80870DAF800605746D1F80480964366
:101C50005FEAC83800D516433E60DBF800605F4697
:101C6000D1F8048096435FEA883800D516433E6079
:101C7000DEF800607746D1F8048096435FEAC82812
:101C800000D516433E60094F0C373E68D1F80480FA
:101C900096435FEA882800D516433E605B1C0E68B9
:101CA0003246DE407FF44AAFBDE8FC8F00040140BD
:101CB00000100240000001400004004800080048F5
:101CC000000C00480069084000D0012070474269BC
:101CD00021EA02030A4043EA0241816170470AB1E6
:101CE00081617047816270470148806870470000D9
:101CF000B0000020F0B590F8C130022B27D090F84A
:101D0000C030012B23D0012580F8C050022380F879
:101D1000C1300468D4F880330026012919D0022983
:101D200021D004292BD0082935D0072180F8C110F3
:101D300080F8C06090F8C110072938D00168C1F858
:101D4000803380F8C15080F8C0600020F0BD0220D0
:101D5000F0BD23F4E021136803F4E0230B43516842
:101D6000C4F8BC13E6E723F4601113684FF460175E
:101D700007EAC3030B435168C4F8C013DAE723F042
:101D8000E07113684FF0E07707EA83130B43516863
:101D9000C4F8C413CEE723F0606113684FF06067A6
:101DA00007EA43230B435168C4F8C813C2E7012074
:101DB000F0BD704770477047704770477047704775
:101DC0007047704710B590F8C020012A21D0012239
:101DD00080F8C020022380F8C1304B1C1BD0036860
:101DE000D3F8CC4344F00204C3F8CC430368D3F8DF
:101DF000CC4324F00C040C43C3F8CC430168D1F865
:101E0000CC3343F00103C1F8CC3380F8C12000206B
:101E100010BD022010BD0168D1F8CC3323F00203BD
:101E2000C1F8CC33EAE7000070B590F8C130022B5E
:101E30003CD090F8C030012B38D0012500F8C05FAD
:101E4000022343701388948803F4E053C4F3080416
:101E50001C4313896FF07E4603F400732343148AF6
:101E600004F480441C43938903F400432343948A7D
:101E700006EA04441C43936903F000732343146A85
:101E8000D26904F080441C4302F00042224350F81F
:101E9000C03CB82404EBC1141959054E314011431C
:101EA0001951457000210170084670BD022070BDB7
:101EB0000020003C7047704770477047704770477C
:101EC000FF2903D0052903D002F07DB801F017BF28
:101ED00001F07EBF38B5040054D0022084F8C10060
:101EE0000025C4F8C450C4F8C850C4F8CC50C4F895
:101EF000D050C4F8D450C4F8D850207AC0071BD0B2
:101F000021492068884208D12048816941F0005168
:101F10008161806900F0005000902168086820F419
:101F20004042208A00F44040104320F44052A08AEE
:101F300000F4405010430860204600F029F8207A51
:101F4000800708D52168086820F44072A08900F451
:101F5000407010430860012084F8C10084F8C0502C
:101F60005FF00001C1EBC10004EB8000491C8561FA
:101F7000C561056245628562C9B205630529F1D96B
:101F8000002038BD012038BD00740140001002401F
:101F900008B500680B49884212D10B48816941F0AD
:101FA000005181618069002200F0005000901146CC
:101FB000432000F0E9FABDE80840432000F0D6BA1B
:101FC00008BD00000074014000100240F0B5006838
:101FD0000C4985B0884213D14FF4405002240025AB
:101FE00003260D278DE8F10069460748FFF798FDA5
:101FF00030028DE8F10069464FF09040FFF790FD08
:1020000005B0F0BD007401400004004870477047FF
:102010007047704770B50D460446FFF765FE0646EB
:1020200007E0681C05D0FFF75FFE801BA8420DD8B3
:1020300065B12068D0F88803C043C003F1D4012003
:1020400084F8C100002084F8C00070BD072084F827
:10205000C100032070BD704770477047704770B56E
:1020600090F8C130022B23D0022380F8C13005291B
:1020700020D08023046803EBC115635923F00706C1
:102080009368334323F01806D36833436351942590
:10209000046805EBC115136863519824036804EBC9
:1020A000C11152685A50012180F8C110002070BD42
:1020B000022070BD0368196821F00704916821436C
:1020C00021F01804D168214319600368116859612F
:1020D000516802689161E6E72DE9F04F90F8C14040
:1020E000022C25D090F8C040012C21D04FF00109DE
:1020F00080F8C090022480F8C14000274FF0070C00
:10210000052918D09C2404EBC116012A39D080245B
:10211000A8254FF4005A4FF4405B05EBC11504EBC2
:10212000C114022A2FD0042A45D0082A0BD144E03A
:102130000220BDE8F08F012A0AD0022A0CD0042A1E
:102140000ED0082A10D080F8C1C080F8C0700EE010
:1021500002681968D1610AE002681968516206E0F4
:1021600002681968916202E002681968D16290F809
:10217000C110072948D080F8C19080F8C0700020B5
:10218000D7E7196835E04FF0A408D0F800C008EB95
:10219000C1111A684CF801205968002901680A59D0
:1021A00022F440522ED00A5101680A59D3F804C0D3
:1021B00042EA0C0218E0196821E04FF0AC08D0F8B0
:1021C00000C008EBC1111A684CF8012059680029B9
:1021D00001680A5922F4404214D00A5101680A5990
:1021E000D3F804C042EA8C020A515968514503D120
:1021F000996802689151BAE75945B8D1996802685F
:102200005151B4E70A51B2E7012092E7F0B590F8D6
:10221000C020012A38D0012480F8C040022280F872
:10222000C1200268D2F8903345682B43C2F890333E
:10223000CA0305D50268D368D0F8AC502B43D360ED
:102240000022DFF848C08C255CF822300B420CD00D
:10225000066805EBC213F758C2EBC20E00EB8E0EF8
:10226000DEF820E047EA0E07F750521CD2B2052AEA
:10227000EAD3026813680B43136080F8C140002161
:1022800080F8C0100846F0BD0220F0BDBC00002060
:1022900070B5044690F8C100022811D094F8C0002F
:1022A00001280ED0012584F8C050022084F8C10016
:1022B000204601F021FE84F8C150002084F8C000BF
:1022C00070BD022070BD10B590F8C020012A10D05A
:1022D000012200F8C02F0223437050F8C03CD3F80D
:1022E00094430C43C3F894434270002101700846A4
:1022F00010BD022010BD10B590F8C020012A10D0EA
:10230000012200F8C02F0223437050F8C03CD3F8DC
:1023100098430C43C3F8984342700021017008466B
:1023200010BD022010BD2DE9F041054690F8C10016
:1023300014460E46022825D095F8C000012823D067
:10234000012785F8C070022085F8C100052E1DD038
:10235000284601F023FFC6EBC60005EB800021688C
:10236000016261684162A1688162E168C1622169BC
:1023700001633146284601F095FC85F8C1700020C4
:1023800085F8C000BDE8F0810220FBE728680168FD
:10239000D0F8A02321F020036169194321F40063E0
:1023A000A169194321F48063E169194321F0C063F5
:1023B000216A194321F00063616A1943A36A21F07D
:1023C000404141EA830121F00053216B194322F47B
:1023D0008033E26A01601A432868C0F8A023BAE794
:1023E00070B5040003D02068C068400701D0012008
:1023F00070BD607C20B900202074204600F03BF8BE
:1024000002206074216845F25550086020684168D8
:10241000626821F007011143416020688168A26869
:102420006FF30B0111438160E16840F6FF70814258
:1024300003D121680969814219D0FFF755FC05468F
:102440004FF47A7608E000BFFFF74EFC401BB04225
:1024500002D90320607470BD2068C0684007F3D1C2
:1024600020680169E2686FF30B01114301610120EB
:102470006074002070BD70472DE9F0410446007C77
:1024800001280AD00126267402206074FFF72CFC74
:10249000054600274FF47A780BE00220BDE8F08172
:1024A000FFF722FC401B404503D9032060742774CA
:1024B000F4E72068C068C0438007F1D521684AF678
:1024C000AA200860667427740020E7E70248816844
:1024D0000278114481607047B0000020074810B5B1
:1024E000016841F010010160032000F06DF8002048
:1024F00000F006F800F024F8002010BD0020024093
:1025000070B50D4D04464FF47A712878B1FBF0F0A8
:102510000A490968B1FBF0F000F001FF48B9102C3E
:1025200007D200222146501E00F02EF800206C60D9
:1025300070BD012070BD0000B0000020D40000205C
:10254000094808B5816941F001018161816901F0A3
:1025500001010091C16941F08051C161C06900F081
:102560008050009008BD000000100240002809DBE8
:1025700000F01F02012191404009800000F1E0209D
:10258000C0F8001170470000F0B40E4B1B680C46F9
:10259000C3F30223C3F10705042D00D90425191D37
:1025A000072901D2002300E0DB1E012606FA05F10F
:1025B000491E214099409E40761E16403143F0BC92
:1025C00003F044BB0CED00E0064900F00702086888
:1025D0004FF6FF03184040EA0220034A1043086008
:1025E000704700000CED00E00000FA052DE9F84FFF
:1025F0000446006800265C4DC0036ED5E869C00043
:1026000008D4E86940F08050E861E869012600F0EC
:102610008050009055480168C90512D40168804671
:1026200041F480710160FFF75FFB074605E000BFE2
:10263000FFF75AFBC01B642835D8D8F80000C00546
:10264000F6D5286A10F4407053D0A18801F4407187
:1026500081424ED0286A4FF4803191FAA1F2B2FA49
:1026600082F29700424A4FF00108174420F440706C
:10267000C7F8008491FAA1F1B1FA81F102EB81016E
:102680000023C1F800342862C00732D0FFF72CFBCA
:10269000074641F2883A4FF0020907E0FFF724FBB2
:1026A000C11B514502D90320BDE8F88F99FAA9F161
:1026B000B1FA81F141F040014846B8EB511F01D118
:1026C00029680CE090FAA0F1B1FA81F141F04001E3
:1026D000B0EB511F02D1296A01E015E0696A99FA4D
:1026E000A9F0B0FA80F000F01F0008FA00F21142E1
:1026F000D4D0286A616820F44070084328621EB173
:10270000E86920F08050E8612078C00705D0286B88
:10271000A16820F00300084328632078800605D5CF
:10272000286BE16820F01000084328632078000639
:1027300005D5E86A216920F4F8700843E86220882A
:10274000C00405D5286B616920F4807008432863B4
:102750002088400405D5286BA16920F480500843E7
:1027600028630020A0E70000001002400070004035
:10277000000042422DE9F0470F46050069D04A4E5D
:10278000306800F00700B84209D2306820F0070036
:1027900038433060306800F00700B84259D12878DB
:1027A000424C800705D56068A96820F0F000084316
:1027B00060602878C0073DD06968012001290DD0EC
:1027C000022923D05FF0020393FAA3F2B2FA82F255
:1027D00042F02002520904D0226803E04FF4003393
:1027E000F2E7626A93FAA3F3B3FA83F303F01F03E9
:1027F000984002422DD0606820F0030008436060DA
:10280000FFF772FA804641F288390CE04FF000730E
:10281000DAE700BFFFF768FAA0EB0801494502D9E3
:102820000320BDE8F0876068696800F00C00B0EB39
:10283000810FEFD1306800F00700B8420BD9306843
:1028400020F0070038433060306800F00700B842DD
:1028500001D00120E5E72878400705D56068E968E0
:1028600020F4E060084360602878000706D56068BF
:10287000296920F4605040EAC100606000F054F81B
:102880006168F02292FAA2F201F0F001B2FA82F24B
:10289000D140074A515CC8400649086006480068B4
:1028A000FFF72EFE0020BCE700200240001002408F
:1028B0004C6E0008D4000020B400002001480068DD
:1028C00070470000D40000200848094900684968A2
:1028D0004FF4E06292FAA2F201F4E061B2FA82F2FD
:1028E000D140044A515CC84070470000D400002029
:1028F000001002405C6E00080848094900684968F9
:102900004FF4605292FAA2F201F46051B2FA82F2EC
:10291000D140044A515CC84070470000D4000020F8
:10292000001002405C6E0008164A10B55168164847
:1029300001F00C03042B20D0082B1ED14FF470148F
:1029400094FAA4F401F47013B4FA84F4E3400F4C45
:10295000D26AE45C0F2393FAA3F302F00F02B3FAF6
:1029600083F3DA40094B1033C9039A5C06D5002380
:102970001946FDF725FCA0FB040110BD0448A4FB8B
:10298000000110BD0010024000127A002C6E0008F9
:1029900000093D002DE9F84F050071D02878FC4E64
:1029A000C0074FF0010425D070686704C0F38100B0
:1029B000012807D07068C0F3810002281BD170681D
:1029C000C00318D597FAA7F0B0FA80F040F02000C5
:1029D000400901D0306800E0706A97FAA7F1B1FAB7
:1029E00081F101F01F0104FA01F1084265D0686825
:1029F0000028D2D061E06868B0F5803F0BD010B1FC
:102A0000B0F5A02F17D0306820F4803030603068E7
:102A100020F4802002E0306840F480303060F06ABA
:102A2000A96820F00F000843F062686820B3FFF740
:102A30005BF980460AE0306840F480203060EAE7C5
:102A4000FFF752F9A0EB0800642871D897FAA7F0B5
:102A5000B0FA80F040F02000400901D0306800E07A
:102A6000706A97FAA7F1B1FA81F101F01F0104FA37
:102A700001F10842E4D020E0FFF736F9804607E094
:102A8000C2E000BFFFF730F9A0EB08006428DCD8F3
:102A900097FAA7F0B0FA80F040F02000400901D08A
:102AA000306800E0706A97FAA7F1B1FA81F101F09D
:102AB0001F0104FA01F10842E4D12878DFF8D4823A
:102AC00080074FF0000A4FF0020730D570684FF0D2
:102AD000F80B10F00C0F07D07068C0F381000228CB
:102AE00027D17068C00324D497FAA7F0B0FA80F019
:102AF00040F02000400901D0306800E0706A97FA89
:102B0000A7F1B1FA81F101F01F0104FA01F10842C5
:102B100002D02869012877D130689BFAABF220F007
:102B2000F8016869B2FA82F29040014331605AE0DC
:102B300064E1286988B394FAA4F0B0FA80F048F808
:102B40002040FFF7D1F8814606E000BFFFF7CCF840
:102B5000A0EB090002289AD897FAA7F0B0FA80F003
:102B600040F02000400901D0306800E0706A97FA18
:102B7000A7F1B1FA81F101F01F0104FA01F1084255
:102B8000E4D030689BFAABF26969B2FA82F220F0C5
:102B9000F80091400843306025E0FFE794FAA4F084
:102BA000B0FA80F048F820A0FFF79EF8814605E0D3
:102BB000FFF79AF8A0EB09000228CCD897FAA7F003
:102BC000B0FA80F040F02000400901D0306800E009
:102BD000706A97FAA7F1B1FA81F101F01F0104FAC6
:102BE00001F10842E4D1287800076CD5A869A8B3A0
:102BF00094FAA4F0B0FA80F008EB8000C0F88044AA
:102C0000FFF772F8814607E0A4E100BFFFF76CF818
:102C1000A0EB090002289ED897FAA7F0B0FA80F03E
:102C200040F06000B4EB501F01D130680BE097FA20
:102C3000A7F0B0FA80F040F06000B7EB501F01D170
:102C4000306A00E0706A97FAA7F1B1FA81F101F0F9
:102C50001F0104FA01F21042D8D034E0FFE794FAE1
:102C6000A4F1B1FA81F108EB8101C1F880A4FFF76A
:102C70003BF8814606E000BFFFF736F8A0EB0900FD
:102C800002289AD897FAA7F0B0FA80F040F06000D6
:102C9000B4EB501F01D130680BE097FAA7F0B0FAFF
:102CA00080F040F06000B7EB501F01D1306A00E0C7
:102CB000706A97FAA7F1B1FA81F101F01F0104FAE5
:102CC00001F21042D8D12878400768D5F0694FF05A
:102CD0000009C00009D4F06940F08050F061F0694B
:102CE0004FF0010900F0805000902B480168C905A1
:102CF00012D4016841F480710160FEF7F5FF83464C
:102D000006E000BFFEF7F0FFA0EB0B00642875D8CB
:102D100021480068C005F5D5E86801280AD008B147
:102D2000052811D0306A20F001003062306A20F0AE
:102D3000040002E0306A40F001003062E86868B3E5
:102D4000FEF7D2FF83460DE0306A40F004003062A7
:102D5000F0E700BFFEF7C8FFA0EB0B0141F288309F
:102D600081424BD897FAA7F0B0FA80F040F04000CB
:102D7000B4EB501F01D1306813E097FAA7F0B0FA16
:102D800080F040F04000B7EB501F09D1306A08E0F6
:102D90000010024000004242007000400CE040E0A1
:102DA000706A97FAA7F1B1FA81F101F01F0104FAF4
:102DB00001F21042CED02DE0FEF796FF834607E0E9
:102DC000FEF792FFA0EB0B0141F28830814215D84B
:102DD00097FAA7F0B0FA80F040F04000B4EB501F33
:102DE00001D130680CE097FAA7F0B0FA80F040F01B
:102DF0004000B7EB501F02D1306A01E083E0706AF7
:102E000097FAA7F1B1FA81F101F01F0104FA01F27A
:102E10001042D5D1B9F1000F03D0F06920F08050F5
:102E2000F061E86980B37168C1F38101022977D04C
:102E30004FF080714F000228504609D091FAA1F15D
:102E4000B1FA81F148F82100FEF74EFF05465DE03A
:102E5000894691FAA1F1B1FA81F1C24648F8210000
:102E6000FEF742FF804605E0FEF73EFFA0EB0800BC
:102E7000022848D897FAA7F0B0FA80F040F0200076
:102E8000400902D0306801E066E0706A97FAA7F165
:102E9000B1FA81F101F01F0104FA01F10842E3D116
:102EA000D5E908100843716821F474110843706073
:102EB00099FAA9F0B0FA80F04AF82040FEF714FF22
:102EC000054604E0FEF710FF401B02281BD897FAC6
:102ED000A7F0B0FA80F040F02000400901D030683F
:102EE00000E0706A97FAA7F1B1FA81F101F01F01D1
:102EF00004FA01F10842E5D02EE000BFFEF7F4FE2F
:102F0000401B022802D90320BDE8F88F97FAA7F0EA
:102F1000B0FA80F040F02000400902D0306801E0B3
:102F20000BE0706A97FAA7F1B1FA81F101F01F0185
:102F300004FA01F10842E1D10EE00128E4D0706802
:102F40002A6A00F48031914204D1696A00F4701059
:102F5000884201D00120D7E70020D5E7704701F073
:102F600059BD70B504460068856906687220B04393
:102F70001CD1E843810707D5010605D5410603D5D5
:102F8000810601D5C00611D4A16C3220884304D03B
:102F9000A16C1220884305D008E02946204601F0A4
:102FA0007DFE03E02946204601F094FD7420B043E5
:102FB0001CD1E843410707D5010605D5410603D5D5
:102FC000810601D5C00611D4A16C4220884304D0EB
:102FD000A16C2220884305D008E02946204601F054
:102FE0005DFE03E02946204601F074FDF043010731
:102FF00003D5810601D5C0060FD4E843010703D5E8
:10300000810601D5C00608D4A06C000705D5294665
:103010002046BDE8704001F041BE70BD7047806C35
:103020007047000070B5040003D0A06C002510B1FB
:1030300006E0012070BD84F84450204600F02CF9D1
:103040000220A0642068016821F00101016060682D
:10305000216820F0706008612068416921F4004116
:1030600041612068416921F0004141612168206B84
:1030700048612068816821F400418160E06830B1D6
:103080002169012907D040F4044021688860206943
:10309000022803D006E040F40040F6E721684FF430
:1030A0000060486020684168174A11434160D4E9D4
:1030B00005010843E16940EA01202168C860D4E9BC
:1030C00008010843D4E90A1211430843A1680843E0
:1030D00021680860A06AB0F5000F09D1E06A10B15C
:1030E000B0F5001F04D12068016841F4803101600F
:1030F0002068016841F001010160E564012020645D
:10310000A064002070BD000000800002704770477E
:1031100070470000F8B504460F460698A16C0129D7
:103120004ED194F8441001294AD0012184F844106A
:103130002221A1640025E56462636387E0631AB914
:10314000E06B20F00070E063FF2B02D9FF202087A6
:1031500000E02387218F608F1A4E814201D2FF2920
:1031600004D0E06B226C222A08D016E00096E06BB7
:10317000FF2200F0806040F0807315E0AA280CD098
:10318000B0F52A0F09D0B0F52A4F06D0B0F12A4F7A
:1031900003D00095E36BCAB206E0204601F0C8FBFD
:1031A0000096E36B94F838203946204601F092FEF1
:1031B00084F84450D421204601F013FC0020F8BDCF
:1031C0000220F8BD00240080F8B504460F4606989A
:1031D000A16C01295CD194F84410012958D0012137
:1031E00084F844101221A1640025E56462636387BA
:1031F000E0631AB9E06B20F00070E063FF2B02D9A6
:10320000FF20208700E02387218F608F214E81429D
:1032100001D2FF2904D0E06B226C122A0CD01AE0F4
:103220000096E06BFF2200F0806040F0807339462A
:10323000204601F04FFE23E0AA280CD0B0F52A0F5B
:1032400009D0B0F52A4F06D0B0F12A4F03D000952F
:10325000E36BCAB206E0204601F06AFB0096E36B1E
:1032600094F838203946204601F034FE2068406842
:10327000400105D5208F401E2087608F401E60874B
:1032800084F84450F221204601F0ABFB0020F8BD49
:103290000220F8BD0020008000B50068154987B005
:1032A000884225D1C0200090122001900120029078
:1032B00003900420049069460F48FEF731FC0F4844
:1032C000C16941F40011C161C069002200F400101D
:1032D000059002211F20FFF757F91F20FFF746F93D
:1032E000002202212020FFF74FF92020FFF73EF9AE
:1032F00007B000BD00540040000400480010024028
:10330000704770474FF0E0210428086903D020F08F
:1033100004000861704740F00400FAE7704710B5F8
:10332000401EB0F1807F01D3012010BD4FF0E0249A
:1033300060610F21601702F089FC0020A061072066
:103340002061002010BD10B5FFF7E8FF10BD7047E9
:1033500070477047F0B590F83C20012A2CD001242A
:1033600080F83C40022280F83D2003685A689D683E
:10337000124EB34203D122F470074A683A4322F056
:1033800070070A683A435A600268B24208D0B2F144
:10339000804F05D00A4B9A4202D00A4B9A4204D180
:1033A000896825F080031943916080F83D40002131
:1033B00080F83C100846F0BD0220F0BD002C014012
:1033C000000400400040014010B5040003D094F810
:1033D0003D0010B107E0012010BD002084F83C0042
:1033E000204600F023F8022084F83D00211D2068CB
:1033F00002F096F8012084F8480084F83E0084F832
:103400003F0084F8400084F8410084F8420084F8CA
:10341000430084F8440084F8450084F8460084F8AA
:10342000470084F83D00002010BD000000B5006892
:10343000114987B088421CD11048C16941F002018E
:10344000C161C069002100F0020005904020009099
:103450000220CDE90101CDE9031069460848FEF7D5
:103460005FFB002202211D20FFF78EF81D20FFF7D1
:103470007DF807B000BD00000004004000100240CD
:103480000008004870B5044690F83C00012817D0A9
:10349000012584F83C50022084F83D0022689068A1
:1034A0002E4B184020F47F4090600868502830D0A0
:1034B0000DDC20284DD005DC98B310283BD148E026
:1034C000022070BD302844D0402834D139E0602833
:1034D00028D0702806D0B0F5805F2CD0B0F5005F02
:1034E00029D10AE0CB68D1E90121206802F069F80E
:1034F0002068816841F0770109E0CB68D1E90121BA
:10350000206802F05EF82068816841F480418160A3
:1035100011E0CA684968206802F0C6F950212068A5
:1035200007E016E0CA684968206802F0CEF9602119
:10353000206802F050F884F83D50002084F83C00E8
:1035400070BDCA684968206802F0AEF94021206861
:10355000EFE7226801461046EBE7000088FFFEFF18
:10356000704770B50446006801694FF00005C94313
:10357000890715D4C168C943890711D4E91E0161BF
:1035800001202077206880698007204602D0FFF75D
:10359000E7FF04E000F0A7F8204600F067F9257780
:1035A00020680169C943490717D4C168C94349075D
:1035B00013D46FF004010161022020772068806934
:1035C00010F4407F204602D0FFF7CAFF04E000F06D
:1035D0008AF8204600F04AF9257720680169C94336
:1035E000090716D4C168C943090712D46FF008014E
:1035F0000161042020772068C0698007204602D03E
:10360000FFF7AEFF04E000F06EF8204600F02EF960
:10361000257720680169C943C90617D4C168C94321
:10362000C90613D46FF010010161082020772068CB
:10363000C06910F4407F204602D0FFF791FF04E0FC
:1036400000F051F8204600F011F925772068016953
:10365000C943C90708D1C168C943C90704D1891E34
:103660000161204600F0CEF920680169C9430906CE
:1036700009D4C168C943090605D46FF0800101610E
:103680002046FFF765FE20680169C943C90509D4D2
:10369000C168C943090605D46FF4807101612046F1
:1036A000FFF755FE20680169C943490609D4C1687E
:1036B000C943490605D46FF040010161204600F07E
:1036C000A2F920680169C94389060BD4C168C943BE
:1036D000890607D46FF0200101612046BDE87040E3
:1036E000FFF737BE70BD704770B5044690F83C00D8
:1036F0000D4601280BD0012084F83C000C2A45D04F
:1037000007DC5AB1042A1BD0082A78D12CE0022009
:1037100070BD102A4ED0142A71D15DE0206801F0EE
:1037200063FF2068816941F0080181612068816937
:1037300021F004018161206881692A69114311E047
:10374000206801F095FF2068816941F40061816182
:103750002068816921F480618161206881692A691A
:1037600041EA022181614AE0206801F0C1FF20683E
:10377000C16941F00801C1612068C16921F00401FB
:10378000C1612068C1692A69114311E0206801F014
:10379000EFFF2068C16941F40061C1612068C1691F
:1037A00021F48061C1612068C1692A6941EA02216E
:1037B000C16124E0206802F011F82068416D41F0F9
:1037C000080141652068416D21F0040141652068D0
:1037D000416D2A69114311E0206802F031F8206838
:1037E000416D41F4006141652068416D21F48061C3
:1037F00041652068416D2A6941EA02214165002046
:1038000084F83C0070BD10B5040003D094F83D006E
:1038100010B107E0012010BD002084F83C002046D4
:1038200000F022F8022084F83D00211D206801F0FC
:1038300077FE012084F8480084F83E0084F83F00B9
:1038400084F8400084F8410084F8420084F8430082
:1038500084F8440084F8450084F8460084F8470062
:1038600084F83D00002010BD7047000010B5204CCA
:10387000E06A411EE16203D202F04CFF3220E062B6
:10388000206B411E216304D202F076FF4FF4FA70E0
:103890002063606B411E616303D202F0F1FE0A20D7
:1038A0006063206A10B1206A401E2062606A10B115
:1038B000606A401E6062A06A10B1A06A401EA062E9
:1038C000208A002813D004210A48FEF7FBF90128BA
:1038D00001D000202082208A012802D9208A401E9F
:1038E0002082208A012802D142F21070A06210BD0D
:1038F00068000020000C004810B50446022269B19F
:10390000042916D0082920D00C2929D010292ED01E
:1039100094F84300012831D0012010BD94F83E00F6
:103920000128F9D184F83E202068C26842F00202E2
:1039300009E094F83F000128EED184F83F20206888
:10394000C26842F00402C2601CE094F84000012802
:10395000E2D184F840202068C26842F00802F2E711
:1039600094F841000128D7D184F8412008E094F868
:1039700042000128D0D184F8422003E084F843209B
:103980000C292DD00122206801F00EFE1749206875
:10399000174A884207D0904205D0164B984202D071
:1039A000154B984203D1436C43F4004343642068B1
:1039B000884207D0B0F1804F04D01049884201D02E
:1039C000904207D181680E4A1140062906D0B1F510
:1039D000803F03D0016841F001010160002010BD6B
:1039E0002068C26842F01002ADE70000002C0140E0
:1039F00000400140004401400048014000040040F4
:103A0000070001007047704710B5040002D0A06F96
:103A100010B107E0012010BD002084F8740020469A
:103A200000F026F82420A0672068016821F0010139
:103A30000160204601F0EEFF0128ECD0606A10B171
:103A4000204601F054FF2068416821F49041416014
:103A50002068816821F02A0181602068016841F0B6
:103A6000010101602046BDE8104001F0A4BF000044
:103A7000F0B587B0044614216846FCF705FC1949E7
:103A8000206888422BD11848816941F480418161C6
:103A9000816901F480410591416941F4002141614E
:103AA000416901F400210591416941F4003141610E
:103AB0004069022400F40030059010200025032600
:103AC00007278DE8F10069460848FEF729F86002EB
:103AD0008DE8F10069464FF09040FEF721F807B0FD
:103AE000F0BD00000038014000100240000800480E
:103AF0002DE9F0475E4800684168C943C9067DD496
:103B0000C168C943C90679D410218160FDF760F806
:103B1000584CB0B371B65848008806B25748008870
:103B20000FFA80F95648008805B2564800880FFA07
:103B300080FC61B6A76A544A7F1C0023A762372F16
:103B40003ED9D4E90C01C6FB8501B7F59B7FC4E9DA
:103B50000C0135D9000A40EA0160DFF830A1090AFA
:103B6000C4E90C01DAF80070DFF824813F1A73EB26
:103B700001010DD3B8F90010002906DD6FF00F0127
:103B800004E0FFE7FCF76CFF64E01021A8F80010E8
:103B90001188B8F80070394411801188B1F5CB7FD5
:103BA00002D840F2971104E0178840F6AD518F42D9
:103BB00000D91180CAF800000021A362C4E90C11E9
:103BC0003448B0F80080344840F2D13146F66C37C2
:103BD000C44505DCDFF8C480B8F80080C14513DDBA
:103BE00005686D1E05600020A362C4E90C00118009
:103BF000A06820B1A068401EA06003E032E0002071
:103C0000FCF7CAFFE7601DE0A760472D11DA0568E1
:103C10006D1C05600020A362C4E90C00118060687F
:103C200018B16068401E60600CE00020FCF7B4FF33
:103C300008E0676011888E42016801DD491C00E0E0
:103C4000491E0160FCF7FCFEFCF71CFF144941F221
:103C500088300860E068002802D0E068401EE0601C
:103C6000BDE8F087BDE8F04705210148FEF728B917
:103C70000C030020200000207000002072000020B3
:103C8000A0000020A2000020760000208400002078
:103C900074000020600000207C00002062000020F2
:103CA0008C000020062911D2DFE801F00911171D50
:103CB00023030068D0F8841341F0010104E0006898
:103CC000D0F8841341F00201C0F8841370470068F3
:103CD000D0F8841341F00401F6E70068D0F88413AB
:103CE00041F00801F0E70068D0F8841341F01001BA
:103CF000EAE70068D0F8841341F02001E4E710B54A
:103D000004460068D0F88813C943C9070AD1D0F81F
:103D10009013C943C90705D10121C0F88C1320466F
:103D2000FEF7C9F82068D0F88813C94389070AD478
:103D3000D0F89013C943890705D40221C0F88C1329
:103D40002046FEF7B9F82068D0F88813C943490720
:103D50000AD4D0F89013C943490705D40421C0F808
:103D60008C132046FEF7A9F82068D0F88813C943C1
:103D700009070AD4D0F89013C943090705D40821CC
:103D8000C0F88C132046FEF799F82068D0F8881305
:103D9000C943C9060AD4D0F89013C943C90605D44B
:103DA0001021C0F88C132046FEF789F82068D0F85F
:103DB0008813C94389060AD4D0F89013C9438906E9
:103DC00005D42021C0F88C132046FEF747F910BD1A
:103DD00070B504460068D0F888134FF00105C94358
:103DE000C9030FD4D0F89013C943C9030AD42904D6
:103DF000C0F88C1384F8C150002084F8C00020461D
:103E0000FDF7DFFF2068D0F88813C94389030BD47E
:103E1000D0F89013C943890306D44FF40031C0F899
:103E20008C132046FDF7C5FF20684168C943C907C8
:103E300008D1C168C943C90704D18560052120465E
:103E4000FDF7BAFF20684168C943890709D4C168F2
:103E5000C943890705D40221816005212046FDF769
:103E6000ACFF20684168C943490709D4C168C94308
:103E7000490705D40421816005212046FDF79EFFF6
:103E800020684168C943090709D4C168C9430907C3
:103E900005D40821816005212046FDF790FF2068A8
:103EA0004168C943C90609D4C168C943C90605D4D4
:103EB0001021816005212046FEF7CEF82068416878
:103EC000C943890608D4C168C943890604D420219E
:103ED00081602046FEF7C1F820684168C943490661
:103EE00009D4C168C943490605D440218160052130
:103EF0002046FEF7B0F870BDF0B50024E425076851
:103F000005EBC11657F806C0B82505EBC1157D595C
:103F1000202A27D00CDC042A15D004DC012A12D078
:103F2000022A2BD11EE0082A1CD0102A26D10AE032
:103F3000402A08D0802A15D0B2F5807F03D0B2F590
:103F4000007F1BD10EE04FF0BC0E0EEBC11E5A6875
:103F500047F80E204FF0C00E07680EEBC1119A68AB
:103F60007A500BE0C42404EBC1145A683A51C827B4
:103F7000046807EBC1119A6862501024FE21A14029
:103F80001A682CEA010CA240D96842EA0C02A1404E
:103F900011431A69D3F814C01746A2400A430CFA19
:103FA00004FC99694CEA020CA14041EA0C01082F7B
:103FB00006D1AA0504D4AA0102D4DA69A2401143A9
:103FC00000688151F0BD2DE9F04106468846006841
:103FD000842202EBC817C1594FF08C02C943CB07AA
:103FE00002EBC8154FF08801424601EBC81409D115
:103FF0004159C943C90705D1012101511146304634
:10400000FDF7DAFE3068C159C943890709D441591F
:10401000C943890705D40221015141463046FDF7C5
:10402000CCFE3068C159C943490709D44159C94335
:10403000490705D40421015141463046FDF7BEFE33
:104040003068C159C943090709D44159C94309070F
:1040500005D40821015141463046FDF7B0FE3068D5
:10406000C159C943C90609D44159C943C90605D430
:104070001021015141463046FDF7EEFF3068C1592D
:10408000C943490609D44159C943490605D44021C9
:10409000015141463046FDF7DEFF3068C159C94342
:1040A000090609D44159C943090605D480210151A3
:1040B00041463046FDF77EFE3068C159C943C90507
:1040C0000AD44159C943C90506D44FF4807101513E
:1040D00041463046FDF76FFE3068C159C943890536
:1040E0000AD44159C943890506D44FF400710151DE
:1040F00041463046FDF78BFF3068C159C943490539
:104100000AD44159C943490506D44FF4806101518D
:1041100041463046FDF77AFF3068C159C943090569
:104120000AD44159C943090506D44FF4006101512D
:1041300041463046FDF76DFF3068C159C943C90497
:104140000AD44159C943C90406D44FF480510151DE
:1041500041463046FDF75CFF3068C159C9438904C8
:104160000AD44159C943890406D44FF4005101517E
:1041700041463046FDF724FE3068C159C943490421
:104180000AD44159C943490406D44FF4804101512E
:1041900041463046FDF78EFEBDE8F0812DE9F04F37
:1041A0008024036804EBC1169C5924F070449C5190
:1041B00003689A469D59E82404EBC114A64653F8B7
:1041C0000490E42404EBC114A3461C59D3F8A03393
:1041D00025F0200755693D4325F4006795693D4367
:1041E00025F48067D5693D4325F0C067156A3D43D6
:1041F00025F00067556A3D4325F07047956A3D43B9
:10420000176B25F40035B7F1005F01D145F4003597
:1042100025F04007556BD2F848802F4327F4802CB7
:10422000176D47EA0C0727F0FC7748EA070892F871
:10423000387029F01F0C07F01F0747EA0C0727F01A
:10424000004CD76B47EA0C0725B924F4807C146C2A
:1042500044EA0C04D2F844C0BCF5606F02D0BCF54F
:10426000F05F01D1402D03D124F4F0544CEA040452
:10427000D56C052921D2DFE801F003090F151B00D9
:10428000D26A23F4003343EA420316E0D26A23F4ED
:10429000802343EA820310E0D26A23F4002343EA36
:1042A000C2030AE0D26A23F4801343EA021304E053
:1042B000D26A23F4001343EA42134AF806800668E0
:1042C00046F80E70066846F80B40D424026804EBEA
:1042D000C11155500068C0F8A033BDE8F08FFCF75D
:1042E00023BD00000148FEF73ABE0000DC040020B8
:1042F0000148FEF736BE0000DC040020322000E05A
:1043000000BF401EFCD2704710B500F009FBFFF75C
:10431000F5FF00F0F5FAFFF7F1FF00F0F9FAFFF70B
:10432000EDFF00F0E5FABDE81040FFF7E7BF10B57C
:1043300000F0EEFAFFF7E2FF00F0E2FAFFF7DEFF2F
:1043400000F0EEFABDE81040FFF7D8BF70B50546A3
:1043500000F0CEFA0824280602D500F0E1FA01E0C8
:1043600000F0D6FA00F0CCFA6806050EFFF7C6FF9B
:1043700000F0BEFAFFF7C2FF641E2404240CEAD149
:1043800000F0CEFA00F0BCFAFFF7B8FF4FF400716E
:104390000448FDF797FC044600F0AAFAFFF7AEFFC9
:1043A000204670BD0004004810B5FDF79DFC05498E
:1043B000054B0A691C69821A22441A610861104679
:1043C00010BD000000000020980100202DE9F04100
:1043D0004FF0A0418EB0D1F8080340F48000C1F83E
:1043E000080323480125002401604FF48031056152
:1043F000C0E90114447680F82040C462C561C460FD
:1044000080F830404FF00808C0F814800476446308
:10441000FDF75CF90520CDE90A040AA914480C94BB
:10442000FCF7AEFF40200990242008900227CDE938
:10443000027503268DF81D4006968DF81C400594E4
:104440008DF81E4000956946094801950494FCF7D3
:104450002DFD69460648CDE90067FCF727FDCDE94B
:10446000008669460248FCF721FD0EB0BDE8F081E8
:104470006C020020F0B54FF0A0408BB0D0F80813CC
:1044800041F48001C0F8081320481F49012501604C
:10449000090200240561C0E90114447680F8204037
:1044A000C462C561C46080F830400821416104766F
:1044B0004463FDF70BF9402009902420089002275F
:1044C0000326CDE90275069605940E20CDE9000578
:1044D0008DF81D408DF81C408DF81E4069460494EF
:1044E0000A48FCF7E3FC0B20CDE9000769460748C2
:1044F000FCF7DCFC0620CDE9000669460348FCF722
:10450000D5FC0BB0F0BD000000010050BC02002043
:104510002DE9F0414A4886B0416941F400214161EA
:10452000416901F400210591416941F48001416133
:10453000416901F480010591416941F40031416113
:10454000416901F400310591416941F480214161E3
:10455000416901F480210591416941F48011416173
:1045600040694FF4604400F4801000940590354891
:1045700001AA0125002682E86100334F69463846CA
:10458000FDF7CEFA2020DFF8C4800090694640464F
:10459000FDF7C6FA2E4801900220029004200090F8
:1045A00069462C48FDF7BCFAA8028DE8610069460F
:1045B0004046FDF7B5FA8020009069463846FDF781
:1045C000AFFA00944FF0904469462046FDF7A8FAF0
:1045D0001820009069464046FDF7A2FA41F6F040E7
:1045E00000900320019069462046FDF799FA41F6B4
:1045F0001070009069463846FDF792FAC12000908D
:1046000069464046FDF78CFA012202212820FDF779
:10461000BBFF2820FDF7AAFF012202210820FDF799
:10462000B3FF0820FDF7A2FF012202211720FDF7AA
:10463000ABFF1720FDF79AFF06B0BDE8F081000040
:10464000001002400000211000080048000400484B
:1046500000001110000C0048F0B55948AFB05749A0
:104660000024C0E900148460FDF734FC0C21544898
:10467000FDF7A8FB0A215248FDF7CCFC01252DAA25
:1046800002214F48CDE92D45FDF734FB44F6BA0031
:10469000269027AB0720082783E8910026AA05214A
:1046A0004748FDF7DCFC102626AA0021444829963D
:1046B0002794FDF7D4FC26AA02214148FDF7CFFC40
:1046C000CDE900640294CDE903450594069407946E
:1046D000089409940A940B946A46052138480C946E
:1046E000FDF721FE42F210702A902AAB012205212B
:1046F0003348FDF7F1FC2B942AAB0122002130480E
:104700002C94FDF7E9FC2AAB012202212C48FDF78D
:10471000E3FC009401940294CDE903450D94280232
:104720000E94CDE90F40119480021294CDE91360EC
:104730006A4600212248FDF7F6FD6A46022120481C
:10474000FDF7F1FD0420CDE91540CDE917742020D7
:10475000CDE919401B9415AB0122002118481C9487
:10476000FDF796FD15AB102202211548FDF790FDCF
:1047700015AB022200211248FDF78AFD15AB20225D
:1047800002210F48FDF784FD2320CDE91D401F9431
:104790002094CDE92140239424941DAA00210848A7
:1047A0002594FDF741FB1DAA02210548FDF73CFBBE
:1047B0000348FDF70BFC2FB0F0BD00000074014072
:1047C0000C0300200F4810B50D4901600E494160EF
:1047D000002101228160C0E9031241618161C16150
:1047E00001624162D1058162C910C16248F26E3135
:1047F0000163FEF717FCBDE8104000F081BB00002C
:1048000000540040DC0400207C1D100010B5164848
:104810008EB01449016001210024C0E901144FF455
:10482000FA41C0E90314FEF7CFFD4FF480500A901F
:104830000AA90D48FEF726FE0B48FEF7E4FF079491
:1048400007A909480994FEF785FD6020CDE9000419
:1048500002940022694604480494FEF745FF0EB016
:1048600010BD000000040040E8030020094808498A
:1048700001604FF416414160002181600C22C1604B
:10488000C0E904128161C16101624162FFF7BCB8F5
:1048900000380140E8010020FCF746BAFCF744BAB2
:1048A000FCF742BAFCF740BA0448406820B9034814
:1048B000001D4068002800D0012070476470000887
:1048C0000348411E401A82080248FDF775B80000EF
:1048D00003000020B00100200348411E401A820856
:1048E000491E0248FDF768B806000020B00100200C
:1048F00000224FF480710148FDF7F1B9000400482F
:10490000012211020148FDF7EAB900000004004845
:1049100000224FF400710148FDF7E1B9000400489E
:10492000012251020148FDF7DAB9000000040048F5
:10493000C16BAA290ED0C16BB1F52A4F0CD0C16B47
:10494000B1F52A0F0CD0C16BB1F12A4F07D14FF04E
:10495000C06103E0002101E04FF08061C163704756
:104960004FF00071FAE710B5836C0022012B02D1E1
:104970000C0600D58022F22400688C430FD1046815
:1049800042F0420264024FEA037404D4002C06DBB6
:1049900042F0800201E0002C01DB42F03002D4241E
:1049A0008C430FD1046842F0440264024FEA03735F
:1049B00004D4002B06DB42F0800201E0002B01DB77
:1049C00042F03002C1F3C201072906D1016842F06A
:1049D0003802490201D442F080020168914301602B
:1049E00010BD00220B0600D58022C1F3C203072BA5
:1049F00001D142F0B802F2238B4301D142F0F2021E
:104A0000D4238B4301D142F0F402006801681143C2
:104A10000160704710B503689A691968D40508D514
:104A20000C0606D5C46C44F00104C4644FF48074D1
:104A3000DC61530509D50B0607D5C36C43F00803A9
:104A4000C36404684FF48063E361930509D50B06E2
:104A500007D5C36C43F00203C36404684FF40073CA
:104A6000E361D30409D50B0607D5C36C43F02003DB
:104A7000C36404684FF48053E361930409D50B06C3
:104A800007D5C36C43F04003C36404684FF400537C
:104A9000E361120509D5090607D5C16C41F0800113
:104AA000C16402684FF40061D161C16C002910D06B
:104AB00004290ED049060AD4816C32228A4302D0DE
:104AC00042228A4303D10121016408218164FEF757
:104AD000A5FA10BD2DE9F843044690F844000128DA
:104AE00014D00125CF4384F84450F8064FF0000657
:104AF0000FD421681020C861E06C40F00400E0642D
:104B000084F844602046FEF789FAC1E00220BDE83F
:104B1000F883B80646D42046FFF77CFFA06CDFF888
:104B200078914FF02008122803D0A06C22281BD0C7
:104B3000AEE0F2212046FFF716FF2168C1F81C8085
:104B40002068416801EA090141602068016821F09C
:104B5000010101602564A56484F84460206801684F
:104B600041F00101016083E078070DD42068406ABC
:104B7000616B0870606B401C6063208F20B1401E29
:104B80002087608F401E6087D4212046FFF7EBFE10
:104B90002168C1F81C802068416801EA0901416070
:104BA00025646FE0780704D42068406A616B087060
:104BB00005E0B80707D4606B216800788862606BF5
:104BC000401C606329E0380638D4608F08B1208F1C
:104BD00010B1608F40B35BE020684068C0F309010A
:104BE000608FFF280CD90096E06BFF2200F08060F8
:104BF00040F08073204600F06DF9FF20208747E0E9
:104C0000608F20870096E36B94F83820204600F0F0
:104C100061F92068406840013AD5208F401E208706
:104C2000608F401E608733E0208F68B130E0A06C59
:104C3000122814D0A06C22281ED029E0780627D490
:104C4000608F28BB606B20B1206840688001EED582
:104C50001EE02068416841F48041416018E0F22183
:104C60002046FFF780FEA06C2064A56484F84460B1
:104C70002046FEF74DFA0BE0D4212046FFF773FEE5
:104C8000A06C2064A56484F844602046FEF73FFAD7
:104C900084F8446000203AE700E800FEF8B50446D6
:104CA00090F84400012825D00127CE4384F84470B1
:104CB000F0064FF0000522D4618F102000292168F2
:104CC000C86119D0A06C2064A06C20F03200A064F0
:104CD000A06C20F04200A064F6212046FFF743FEBE
:104CE000E06C40F00400E06484F844502046FEF795
:104CF00095F9B0E00220F8BD84F84450ABE03007ED
:104D000010D4206881698269C1F300410368C2F34D
:104D1000464223F00803036084F844502046FEF71F
:104D20001DF998E0700701D5300672D4A16C4220BD
:104D3000884304D0A16C322088433FD08BE02068A8
:104D4000406A616B0870606B401C6063208F401E7E
:104D50002087608F401E6087608F012812D0608F8F
:104D6000E0B10095E06B012200F0806040F08073BC
:104D70000021204600F0AEF82068416821F400418F
:104D8000416068E0E06B20F08070E0630095E36BC9
:104D900001220021204600F09DF85CE0D42120464D
:104DA000FFF7E1FDA06C2064A06C20F04200A0643D
:104DB00084F844502046FEF7A3FA4CE0608F30B3ED
:104DC000208F20BB608FFF280DD90095E06BFF225C
:104DD00000F0806040F080730021204600F07AF8F7
:104DE000FF20208737E0608F20870095E36B94F8E1
:104DF00038200021204600F06DF82068406840010E
:104E000029D5208F401E2087608F401E608722E0BA
:104E1000FFE7B0071FD4608F60B1606B2168007836
:104E20008862606B401C6063608F401E6087208FCB
:104E3000401E2087608F70B9F2212046FFF793FD56
:104E4000A06C2064A06C20F03200A06484F8445070
:104E50002046FEF756FAB00635D4A06C000732D5CE
:104E600020688169C94349070CD4406A616B0870A6
:104E7000606B401C6063208F20B1401E2087608FD4
:104E8000401E6087F6212046FFF76DFD3821204641
:104E9000FFF769FD2068416841F4004141602068E6
:104EA00041680B4A1140416021682020C861216897
:104EB0000820C861E563A06C2064A76484F84450AE
:104EC0002046FEF723F984F844500020F8BD000086
:104ED00000E800FEF0B50568059C68684FF4806640
:104EE000064FC1F3090106EA545641EA02413E4326
:104EF0001943B043214308436860F0BDFF63FF07D7
:104F000038B54FF47A740123104A09210020009427
:104F100000F0BCFE4FF0FF35401C15D00B4A0023BB
:104F2000921C0A210120009400F0B0FE401C0BD01E
:104F3000064A0123121D0F210220009400F0A6FE54
:104F4000401C01D0002038BD284638BDA6000020F6
:104F5000032802DB4FF0FF307047034900EB80006D
:104F600001EB8000006970472C050020032802DB5C
:104F70004FF0FF307047084A00EB800102EB8101DF
:104F80008A7822B1012AF5D14868008870474868BC
:104F9000B0F90000704700002C0500202DE9F04515
:104FA0004B4C04274B4E2078002585B005281CD299
:104FB000DFE800F0031C33488500A068401CA060B7
:104FC000032800DBA560A06800EB800006EB8005ED
:104FD000E87801286FD0FCF787FEE968AA68411AD3
:104FE000914268D3E8600120207064E039480123D1
:104FF00030301621C560056145618561A068009566
:1050000000EB800006EB800232485038FEF7DCF8F7
:1050100008B127704FE0022020702E485038FDF76D
:10502000FEFF0128F9D12B4A4FF0C0603C320090BE
:1050300003231721A2F18C00FEF76CF80028E8D1B9
:105040000320207023485038FDF7E9FF0128F9D1EB
:10505000A068DFF880A000EB800006EB8006162039
:105060008DF8040030788DF8050017208DF80600C3
:105070000AF13C0A01A89AF800108DF807109AF876
:1050800001108DF808109AF80280052100F01EFE2C
:105090008045BED135619AF8002048469AF8011043
:1050A00062F3070061F30F20B17809B1012901D142
:1050B00071680880257005B00020BDE8F085A06803
:1050C00000EB800006EB80000169491C0161F1E7FB
:1050D000A40000202C05002070B510480021104AC3
:1050E000418008461154401C80B2A828FAD30024FD
:1050F0000021204600F040F90025002000F06AF968
:105100006D1CADB2802DF8D3641CE4B2082CEFD333
:10511000BDE870400021084600F046B95C00002060
:105120003404002010B5044600F04CF98020FFF74D
:105130000DF92046FFF70AF9BDE81040FFF7F7B870
:1051400070B5C0EBC0000B4A00EB400010440024D7
:10515000405C094900EB80004518285D00F03AF9F1
:10516000641CE4B2052CF8D3BDE87040002000F0C8
:1051700031B9000034040020946A000810B500F032
:105180005BF8AE20FFF7CEFF2020FFF7CBFF10200B
:10519000FFF7C8FFB020FFF7C5FFC820FFF7C2FF29
:1051A0000020FFF7BFFF1020FFF7BCFF4020FFF7F4
:1051B000B9FF8120FFF7B6FFFF20FFF7B3FFA12063
:1051C000FFF7B0FFA620FFF7ADFFA820FFF7AAFF6B
:1051D0003F20FFF7A7FFA420FFF7A4FFD320FFF78E
:1051E000A1FF0020FFF79EFFD520FFF79BFFF020D7
:1051F000FFF798FFD920FFF795FF2220FFF792FFD6
:10520000DA20FFF78FFF1220FFF78CFFDB20FFF77C
:1052100089FF2020FFF786FF8D20FFF783FF1420F2
:10522000FFF780FF2E20FFF77DFFFFF755FFBDE85A
:105230001040AF20FFF776BF0C4800B5416987B03A
:1052400041F4802141614069694600F48020059065
:105250004FF44070009011200190012002900390C3
:105260000348FCF75DFC07B000BD000000100240E1
:105270000004004810B51B4C0A2822D020386028B2
:1052800001D35F2200E0C2B26078174BC0EBC001CF
:1052900001EB41010B4421785A54FFF751FF20786C
:1052A000401CC0B2207015281BD3617801208840B3
:1052B000618808436080002000F08CF8FF2000F037
:1052C00089F86078401CC0B26070082801D20021C3
:1052D00003E000F00BF800210720BDE8104000F0CB
:1052E00063B810BD5C000020340400202DE9F041BB
:1052F00001261F4900200A18527D0A54401C80B222
:105300009228F8D31B4D6888400868800020024628
:105310000B18401CC0B283F893201528F8D300273F
:105320004FF6FF780021384600F026F80024214689
:105330003846FFF705FF641CE4B2152CF7D30020B4
:1053400000F048F86888304000D0FF2000F042F8B4
:105350007F1CFFB208EA4606082FE3D3687800B145
:10536000401E2978BDE8F041C0B200F01DB8000031
:10537000340400205C00002070B50C46054601EBAB
:1053800044000F2101EA4000FFF7CCFE04EB44008B
:105390004006102101EB1070FFF7C4FEB035E8B2F3
:1053A000BDE87040FFF7BEBE072800D30720044ABF
:1053B0001429507000D314211170FFF7DDBF0000D5
:1053C0005C00002010B5FEF79FFFBDE8104078207C
:1053D000FEF7BCBF10B50446FFF7F4FF4020FEF710
:1053E000B5FF2046FEF7B2FFBDE81040FEF79FBFB5
:1053F000FBF79ABC70B5FCF777FC194942F21074C0
:10540000184A4B69A34204D88C69041B23444B619E
:1054100005E04B78012B02D033B100231370886173
:105420001148006810B116E00123F7E70F4B1C8804
:1054300040F23A250020AC4203D94B785BB1486179
:1054400008E01B88B3F5CB7F07D84B78022B02D03E
:10545000486102204870107870BD48610120F9E76A
:1054600000000020980100208C0000207000002027
:1054700010B5FDF72BF8BDE81040FDF764BF30B55F
:1054800097B002240120049000941020059000257C
:105490004FF46010CDE9085007946846FDF77AFA9A
:1054A0000AA90F2081E831006002CDE90D05022133
:1054B0000AA8FDF75FF960030F90801015900FA800
:1054C000FDF794F8FDF7FAF94FF47A71B0FBF1F0BB
:1054D000FDF725FF0420FDF715FF00221146501EA1
:1054E000FDF752F817B030BD0248016841F4700171
:1054F0000160704788ED00E04FF080400169C90706
:1055000005D06FF001010161014800680047704754
:10551000000100200148FEF724B80000E803002045
:10552000F0B502681B4B1C4F4FF0804C984203D0E3
:10553000604501D0B84203D122F070044A6822438A
:10554000164C174D174E984209D0604507D0B84207
:1055500005D0A04203D0A84201D0B04203D122F42A
:105560004077CA683A434F6922F080023A430260AA
:105570008A68C2620A688262984205D0A04203D05B
:10558000A84201D0B04201D1096901630121416102
:10559000F0BD0000002C014000040040004001402C
:1055A000004401400048014010B501F01F030121F3
:1055B000046A99408C430462016A9A401143016273
:1055C00010BD10B5846842EA032224F47F440A43E4
:1055D0002243826010BD826822F070020A4342F0CA
:1055E0000701816070470000F0B5026A22F00102F5
:1055F0000262056A43688269184C25F00205224060
:105600000C6822F0030214438A68164E2A43144D94
:10561000154FDFF858C0A84205D0B04203D0B842B9
:1056200001D0604506D122F0080ECA6842EA0E0297
:1056300022F00402A84205D0B04203D0B84201D003
:10564000604505D14D6923F440731D438B692B439D
:1056500043608461496841630262F0BD8FFFFEFFD1
:10566000002C01400040014000440140004801403E
:1056700030B5026A22F010020262046A426883694D
:10568000164D2B400D6823F4407343EA052524F0A2
:1056900020038C6843EA0413114CA04207D1CC6864
:1056A00023F0800343EA041323F0400308E00D4C89
:1056B000A04205D00C4CA04202D00C4CA04207D115
:1056C0004C6922F4406242EA84028C6942EA840214
:1056D0004260856149688163036230BDFF8FFFFED0
:1056E000002C0140004001400044014000480140BE
:1056F00030B5026A22F480720262046A4268C369A9
:10570000164D2B400D6823F003031D4324F4007352
:105710008C6843EA0423124CA04207D1CC6823F4DE
:10572000006343EA042323F4806308E00D4CA042A5
:1057300005D00D4CA04202D00C4CA04207D14C69C0
:1057400022F4405242EA04128C6942EA0412426096
:10575000C5614968C163036230BD00008FFFFEFF71
:10576000002C01400040014000440140004801403D
:1057700030B5026A22F480520262046A4268C36948
:10578000114D24F400542B400D6823F4407343EA78
:1057900005238D6844EA05340C4DA84208D00C4D11
:1057A000A84205D00B4DA84202D00B4DA84204D10F
:1057B0004D6922F4804242EA85124260C361496821
:1057C0000164046230BD0000FF8FFFFE002C014029
:1057D00000400140004401400048014030B5026AE9
:1057E00022F480320262046A4268436D0F4D2B40FE
:1057F0000D681D4324F400330C8943EA04430C4C28
:10580000A04208D00B4CA04205D00B4CA04202D0C5
:105810000A4CA04204D14C6922F4803242EA0422AC
:105820004260456549688165036230BD8FFFFEFFB8
:10583000002C01400040014000440140004801406C
:1058400030B5026A22F480120262046A4268436D33
:10585000104D24F400142B400D6843EA05230D89F4
:1058600044EA05540C4DA84208D00C4DA84205D07E
:105870000B4DA84202D00B4DA84204D14D6922F431
:10588000802242EA8522426043654968C16504621C
:1058900030BD0000FF8FFFFE002C014000400140A2
:1058A000004401400048014010B5036A046A24F036
:1058B00001040462846924F0F00444EA021423F031
:1058C0000A020A438461026210BD10B5036A23F024
:1058D000100303628369046A23F4704343EA0232CB
:1058E00024F0A00343EA01118261016210BD90F827
:1058F0002410C90706D001684A68836A22F400327E
:105900001A434A6090F82410890706D501684A684E
:10591000C36A22F480321A434A6090F8241049077F
:1059200006D501684A68036B22F480221A434A6054
:1059300090F82410090706D501684A68436B22F4E1
:1059400000421A434A6090F82410C90606D501683F
:105950008A68836B22F480521A438A6090F824107C
:10596000890606D501688A68C36B22F400521A437F
:105970008A6090F82410490611D501684A68036CC2
:1059800022F480121A434A60016CB1F5801F06D1DF
:1059900001684A68436C22F4C0021A434A6090F8D6
:1059A0002410090606D501684A68806C22F400229A
:1059B00002434A607047F8B500260446C0F880608C
:1059C000FCF792F90546206800686FF07E470007F3
:1059D00008D52B4600224FF400112046009700F016
:1059E000BBF860B92068006840070AD52B46002242
:1059F0004FF480012046009700F0AEF808B1032074
:105A0000F8BD2020A067E067266684F87460002057
:105A1000F8BD000070B5044680682169E26908435A
:105A2000616900251143226808431168444B1940FD
:105A30000143116020684168E26821F4405111433C
:105A40004160A169206A084321688A6822F43062B3
:105A500002438A603B492068884210D13A48006B73
:105A600010F0030011D0012805D0022805D003282A
:105A70000DD102210CE004210AE0082108E033499D
:105A8000884202D03249884201D1002100E0102131
:105A9000E3694FF400422F484FF6EF76934227D147
:105AA000092941D2DFE801F005080E400B404040D3
:105AB0002200FCF709FF04E0FCF71EFF01E0FCF701
:105AC00033FF90B34100606801EB5001B1FBF0F08F
:105AD00080B2A0F11001B14226D84FF6F07101401A
